:020000040800F2
:100000000007002089010008E1030008E102000860
:10001000DD03000843020008450C00080000000052
:10002000000000000000000000000000D5050008EE
:1000300047020008000000000D04000895070008B2
:10004000A3010008A3010008A3010008A301000800
:10005000A3010008A3010008A3010008A3010008F0
:10006000A3010008A3010008A3010008A3010008E0
:10007000A3010008A3010008A3010008A3010008D0
:10008000A3010008A3010008A3010008A3010008C0
:10009000A3010008A3010008A3010008A3010008B0
:1000A000A301000815080008A3010008A301000827
:1000B000A3010008A3010008A3010008A301000890
:1000C000A3010008A3010008A3010008A301000880
:1000D000A3010008A3010008A3010008A301000870
:1000E000A3010008A3010008A301000800F002F822
:1000F00000F03AF80AA090E8000C82448344AAF188
:100100000107DA4501D100F02FF8AFF2090EBAE885
:100110000F0013F0010F18BFFB1A43F0010318473B
:10012000441E0000641E0000103A24BF78C878C145
:10013000FAD8520724BF30C830C144BF04680C60ED
:10014000704700000023002400250026103A28BF35
:1001500078C1FBD8520728BF30C148BF0B60704739
:100160001FB51FBD10B510BD00F031F81146FFF7E7
:10017000F7FF00F0C3FE00F04FF803B4FFF7F2FF03
:1001800003BC00F057F800000948804709480047C1
:10019000FEE7FEE7FEE7FEE7FEE7FEE7FEE7FEE737
:1001A000FEE7FEE704480549054A064B7047000094
:1001B000B5070008ED00000800010020000700203E
:1001C0000003002000030020704770477047754609
:1001D00000F02CF8AE4605006946534620F00700B3
:1001E000854618B020B5FFF7DDFFBDE820404FF091
:1001F00000064FF000074FF000084FF0000B21F011
:100200000701AC46ACE8C009ACE8C009ACE8C009DD
:10021000ACE8C0098D46704710B50446AFF30080C6
:100220002046BDE81040FFF7A8BF00000048704717
:10023000A000002001491820ABBEFEE72600020006
:10024000704700BFFEE770472248806940F0080011
:10025000204988610846806940F0100088611E4886
:10026000006940F400501C4908610846406820F4C9
:10027000400048600846406820F440104860174835
:10028000006820F44070154908600846006840F492
:10029000407008600846006820F440600860084626
:1002A000006840F4406008600846006820F4405050
:1002B00008600846006840F440500860084600683E
:1002C00020F4404008600846006840F44040086060
:1002D000704700000010024000100140040C014073
:1002E00000BFFEE700200A490880091D0880091D9B
:1002F0000880091D0880091D0880091D0880091D46
:100300000880091D0880022001490880704700000C
:100310000058004000B52F48C06940F480002D49C6
:10032000C8612D48008820F001002B490880FFF7A4
:10033000D9FF2948001D008840F024002649091DE6
:1003400008800C20244920310880081F008840F4D0
:100350000040091F08800846008820F4804008807B
:100360000846008840F01F0008801B48008820F0E5
:100370000200194908800846008820F080000880A3
:1003800015480830008820F40040134908310880DF
:10039000081D008820F00100091D08800E48008813
:1003A00020F040000C4908800B481830008840F4C9
:1003B00000700949183108800748008840F00100A2
:1003C0000549088000BF0448008800F001000028AB
:1003D000F9D000BD001002400058004000BFFEE709
:1003E0007047000010B5002807DA0A07140E054A06
:1003F00000F00F031B1FD45403E00A07130E024A38
:10040000135410BD18ED00E000E400E07047000058
:100410002E48006840F480302C49086000BF2B480B
:10042000006800F400300028F9D013202849086043
:1004300026484068254948600846406840F4806086
:1004400048600846406848600846406840F0806060
:1004500048600846406820F47010486008464068CC
:1004600020F4803048600846406820F4003048603E
:100470000846406840F4803048600846406820F4F0
:10048000003048600846406840F4E0104860084684
:10049000006840F08070086000BF0C48006800F001
:1004A00000700028F9D00948406820F0030007498F
:1004B00048600846406840F00200486000BF0348BA
:1004C000406800F00C000828F9D170470010024085
:1004D000002002402DE9F04107460E461546002453
:1004E00000F026F9384600F077F8304600F090F832
:1004F0003748008840F480703549088000BF344890
:100500001430008800F001000028F8D03048143082
:100510000088D1202E491031088000BF2C481430AB
:10052000008800F002000028F8D029481430008824
:10053000274818300088002445E0032C0CDA00BF5F
:1005400023481430008800F040000028F8D02048EC
:1005500010300088285534E0032C1FD100BF1C4800
:100560001430008800F040000028F8D000BF184880
:100570001430008800F004000028F8D014480088E7
:1005800020F48060124908801148103000882855F6
:100590000846008840F40070088012E0042C0CD15A
:1005A0000B4810300088285500BF094814300088D7
:1005B00000F040000028F8D003E005481030008823
:1005C0002855601C44B2062CB7DBBDE8F081000062
:1005D00000580040704700000C49088000BF0B49DC
:1005E000091D098801F002010229F8D10749091DF6
:1005F000098806490831098800BF0449091D09888E
:1006000001F080018029F8D17047000010580040A7
:100610000549088000BF0449091D098801F08001CF
:100620008029F8D170470000105800400549088023
:1006300000BF0449091D098801F004010429F8D10B
:10064000704700001058004010B500F001F810BDD0
:100650000CB50020019000903348006840F48030D1
:100660003149086000BF3048006800F40030009055
:100670000198401C0190009818B90198B0F5A06F3E
:10068000F1D12948006800F4003010B10120009039
:1006900001E0002000900098012843D12348006821
:1006A00040F01000214908600846006820F003006F
:1006B00008600846006840F0020008601A48406878
:1006C000194948600846406848600846406840F458
:1006D000806048600846406820F47C104860084606
:1006E000406840F4E81048600846006840F08070B8
:1006F000086000BF0C48006800F000700028F9D0C6
:100700000948406820F003000749486008464068EF
:1007100040F00200486000BF0348406800F00C0051
:100720000828F9D10CBD0000001002400020024052
:100730000F48008840F480600D49088000BF0C48D5
:100740001830008800F002000228F8D0084800881D
:1007500040F480700649088000BF054814300088C6
:1007600000F001000028F8D002480088704700001F
:1007700000580040145400400548008840F40070C0
:10078000034908800846008820F48060088070478C
:10079000005800404FF0E020006920F010004FF0BA
:1007A000E021086102480068401C01490860704768
:1007B0007000002010B51348006840F00100114996
:1007C000086008464068104908400E4948600846DD
:1007D00000680E4908400B4908600846006820F48C
:1007E000802008600846406820F4FE0048604FF40E
:1007F0001F008860FFF728FF4FF000600449086081
:1008000010BD0000001002400000FFF8FFFFF6FEE0
:1008100008ED00E02DE9FF5FE448008820F00100CA
:10082000E2490880E248006814280FD10020E0491E
:100830000860E0490860E0490860E0490860E04974
:100840000860E0490860E0490860ADE1D848006808
:10085000401CD7490860DD4A3B21D020FFF73AFE13
:10086000DA484078D949097840EA012000B2D849ED
:100870000880D648C078D549897840EA012000B27E
:10088000D4490880D1484079D049097940EA01200B
:1008900000B2D1490880CD4A4321D020FFF71AFE8B
:1008A000CA484078C949097840EA012000F5A160AA
:1008B00000B2CA490880C548C078C449897840EA6E
:1008C0000120523800B2C6490880C0484079BF496B
:1008D000097940EA0120613000B2C249088000F085
:1008E000EFFA044600F01CFCBF49086008460068A7
:1008F00001F05AF806460F46B848B0F9000000F07B
:1009000041FE80460022B94B00F0E4FC32463B46F3
:10091000CDE9000100F060FECDE90201B4480068B5
:1009200001F042F80446DDE9022300F02BFC824688
:1009300000F0F6FBAE490860AB48006801F034F8FF
:1009400006460F46A648B0F9000000F01BFE8046A0
:100950000022A64B00F0BEFC32463B46CDE900012A
:1009600000F03AFE04460D46A248006801F01CF86B
:10097000824622462B4600F005FCCDE9020100F03C
:10098000CFFB9C4908609848006801F00DF80446C8
:100990000D469448B0F9000000F0F4FD0646002230
:1009A000924B00F097FC22462B46CDE9000100F067
:1009B00013FE804689469048006800F0F5FF8246A5
:1009C00042464B4600F0DEFBCDE9020100F0A8FBF9
:1009D0008949086089480088894908807548006805
:1009E0007549086087480068724908608648B0F910
:1009F000000001F049F904467D480168204601F0F5
:100A00003BFA804908607E48008801F055F980462D
:100A1000694801687D48006801F062F981467948BB
:100A200001687B48006801F05BF9824675480168FF
:100A30007848006801F054F98346514600F0E0FF21
:100A40000746494600F0DCFF0646414600F0D8FF65
:100A5000054671480168284601F034F8044601F063
:100A6000F3F8664908806D4800886D49088053484E
:100A70000068534908606B480068504908606A483C
:100A8000B0F9000001F000F904465A480168204618
:100A900001F0F2F9634908606148008801F00CF93F
:100AA0008046474801685948006801F019F98146B5
:100AB0005C4801685648006801F012F982465948BE
:100AC00001685448006801F00BF98346514600F074
:100AD00097FF0746494600F093FF0646414600F05F
:100AE0008FFF05464C480168284600F0EBFF04469E
:100AF00001F0AAF8494908804C4800884C49088010
:100B000030480068304908604A4800682D4908604C
:100B10004948B0F9000001F0B7F8044636480168CA
:100B2000204601F0A9F9434908604148008801F0D6
:100B3000C3F88046244801683448006801F0D0F8C2
:100B400081463C4801683248006801F0C9F8824695
:100B5000384801682F48006801F0C2F883465146C2
:100B600000F04EFF0746494600F04AFF0646414660
:100B700000F046FF054628480168284600F0A2FF1D
:100B8000044601F061F8294908801C48008801F0FA
:100B900093F8054629480168284601F0A1F8044663
:100BA00001F052F826490880BDE8FF9F102C014053
:100BB0001C0000203C0000204000002048000020D5
:100BC0004C000020540000205800002000000020AD
:100BD00006000020080000200A0000200C00002071
:100BE0000E000020100000206C000020006060401B
:100BF0007C00002080000020840000202C000020C9
:100C00002E000020380000201200002028000020C4
:100C10002400002020000020680000203000002078
:100C20003200002044000020140000203400002086
:100C30003600002050000020160000208C0000200C
:100C40003408004000BFFEE770B506460C46154666
:100C5000FFF76EFD3046FFF7BFFC2046FFF7D8FCDC
:100C60002846FFF7E3FCFFF787FD70BD90488069D9
:100C700040F008008E4988618E48006820F040608E
:100C80008C490860081D006820F04040091D08607C
:100C90000846006820F00C0008600846006820F054
:100CA000C0000860081F006840F00060091F08606D
:100CB0000846006840F000400860081D006840F0E9
:100CC0000800091D08600846006840F080000860C0
:100CD000081F006840F00070091F0860084600689F
:100CE00040F000500860081D006840F00200091D37
:100CF00008600846006840F0200008606C48806981
:100D000040F001006A4988610846C06940F004006B
:100D1000C8616948008840F0800067490880232046
:100D20006649088049F64040091D08806348283814
:100D3000008820F060006149283908800846008852
:100D400020F0100008805D481038008840F06000F6
:100D50005A491039088059480838008840F0010085
:100D60005649083908800846008820F002000880AB
:100D700052481038008820F003005049103908808C
:100D80000846008840F0080008800846008840F0C7
:100D9000040008800846008840F4C04008804748A6
:100DA0000838008840F01000444908390880084697
:100DB000008820F02000088040481038008820F487
:100DC00040703E49103908800846008840F40060B1
:100DD00008800846008840F480600880081D00886C
:100DE00040F06000091D0880081D008840F48070F4
:100DF000091D08800846008820F400700880081F3C
:100E0000008820F00300091F08800846008840F091
:100E1000080008800846008840F004000880084662
:100E2000008840F4C0400880081D008840F48050CD
:100E3000091D08800846008820F400500880081F1B
:100E4000008820F44070091F08800846008840F49C
:100E5000006008800846008840F4806008801748D9
:100E60001438008840F001001449143908801348F0
:100E70001C30008840F4004010491C3108800846AE
:100E8000008840F4804008801B20012181404209F5
:100E9000920002F1E022C2F8001100BF0748283892
:100EA000008840F00100054928390880704700009B
:100EB00000100240000C0140002C014028080040B6
:100EC00070B50A4800680A4908600A48006807497E
:100ED00008600968064A1268881A00F06AFB04462E
:100EE0000022054B00F0F6F970BD000078000020EC
:100EF000740000207000002080842E41FFF788FAE3
:100F0000FFF7A2F9FFF706FA00F0AEF84824B4F1B3
:100F1000807F00D311E024F07F40401E4FF0E0219D
:100F200048610F214FF0FF30FFF75CFA00204FF0CF
:100F3000E02188610720086100BFFFF797FE3F4965
:100F4000098888B200F0A6F81920012181404209E1
:100F5000920002F1E022C2F8001100BF0121FFF768
:100F600041FA374801684FF0804000F0B9FE8046F2
:100F70003248006800F0A0FE81463048006800F06A
:100F80009BFE82462F480168504600F0A9FE0746A6
:100F9000494600F0A5FE054628490968480000F0CA
:100FA0008BFE074628480168384600F099FE064641
:100FB000294600F025FD0446414600F021FD234965
:100FC00008601E490968480000F076FE06461E4883
:100FD0000168304600F084FE0446194801684FF06D
:100FE000814000F07DFE06461449096801FB01F0CE
:100FF00000F062FE0746314600F03EFF05462146FE
:1010000000F03AFF124908600D4801684FF0804037
:1010100000F066FE0F490860084800680E49B0FB02
:10102000F1F04400204600F047FE0C4908600C48EF
:1010300000680C49086062B600BFFEE71800002097
:1010400064000020600000205C00002020000020E0
:10105000240000202800002040420F0068000020EB
:10106000700000207800002010B500226B21D020F5
:10107000FFF7EAFD07221921D020FFF7E5FD002246
:101080001C21D020FFF7E0FD00221B21D020FFF71C
:10109000DBFD10BD2049896941F400611E4A916160
:1010A0001E49098841F080011C4A118048F69F4181
:1010B0001A4A283211804FF6FF7101EA4001121DD1
:1010C00011801649098821F06001144A11801146E7
:1010D000098821F0100111801146098821F00201D0
:1010E00011800E491031098821F004010B4A103299
:1010F00011801146098821F001011180111F098812
:1011000041F00101121F11800449098841F00101D9
:10111000024A11807047000000100240002C01407C
:1011200021F00042A2F16052B2F5801F01F00043AD
:1011300028BFD2F17F6C0BD95FEA001C43EAC202E0
:1011400042EB507018BF704728BF20F00100704775
:10115000B2F5801FBCBF184670474FEA410C1CF522
:10116000001F02D2084600F082BE70B500F0DEFA21
:1011700000000089FFF7F6BF4FF00040A0F58000A7
:101180007047000010B591EA030F48BF83F0004399
:1011900000F12883841A71EB030C05D2121943EB7A
:1011A0000C03001B61EB0C01DFF824E14FEA115442
:1011B000A4EB135C1EEA430F18BF9EEA445F73D092
:1011C00023EA0E03DCF1200E21EA045143F48013DC
:1011D00032D322FA0CFE10EB0E0023FA0CFE41EB88
:1011E0000E01CCF1200E03FA0EFE10EB0E0051F1B1
:1011F0000001B1F5801FCCF1200E32D201EB045179
:1012000012FA0EF2BDE8104058BF7047401C38BFBC
:101210005FEA420218BF7047002814BF20F00100A7
:1012200041F100014FEA410313F5001F38BF704739
:10123000A1F1C04100F0C8BA012A43EB0302ACF1AE
:10124000200CDCF11F0E32BF4FF0000E23FA0CF31E
:1012500010EB030041EB0451B4EB115FD0D0A1EBD4
:10126000045101F5801149085FEA300001EB045197
:101270000ED350F1000038BF12FA0EFE08D1BDE8BF
:101280001040C9E7401C38BF5FEA4202CAD1C3E739
:10129000BDE810404FEA410313F5001F38BF704707
:1012A000A1F1C04100F090BA9EEA445F08D011EA73
:1012B0005E0FBDE8104004BF01F000410020704700
:1012C000BDE8104070B500F031FA00BF64FBBE3ECF
:1012D0000000E0FF2DE9C04130B4DFF8A0C23CEAD5
:1012E000111418BF3CEA131400F0EC8081EA0305E6
:1012F0001CEA111444EAD57418BF1CEA131500F057
:10130000C780A4EB05044FF0004545EAC12145EA3A
:10131000C32341EA505143EA525304F17F74994286
:1013200004F500344FEAC0204FEAC22208BF9042C1
:1013300000F09C804FEA13650FF24016765D4FEA8D
:10134000134506FB05F7C7F1807706FB07F74FEA61
:10135000D737A7FB03687642C8F58038A7FB06CECF
:1013600038BFA8F1010807FB08E64FF0000EA6FB06
:10137000028CE6FB03CEDCF1000CCEF1004E38BF50
:10138000AEF1010EA6FB0C584FF000074FF0000520
:10139000E6FB0E87A1FB08C6A0FB07CE16EB0E06E8
:1013A00045F10005E1FB076515F1E04E7EBFA4F5B0
:1013B00080345FEA46066D4116F1800745F100056D
:1013C0004FEA17274FEA066647EA0567A6F1DE46A9
:1013D000B6F1805F4FEA15251FD9384624F0010C7D
:1013E00005EBC471BCF1FE6F01EB0C1102D8F0BC2F
:1013F000BDE8008124425CBF01F5801E9EEAC47FE7
:1014000002D4F0BCBDE80081244238D4F0BCA1F184
:10141000C041BDE8004100F0D7B94FEAD22242EA0C
:1014200043524FEAD323A7FB02864FEAD02040EA7B
:10143000415007FB03661EEA0E0F4FEAD12105FB60
:10144000026658BFA6EB0056B6EB00564FEA520EA6
:101450004EEAC37E18EB0E0E56EB530EBDD518EBBD
:1014600002085E417F1C55F10005B6E74FF4801578
:101470004FF000074FF000064FF00008ADE7F0BC5A
:101480004FF0000001F1C04101F00041BDE80081D2
:1014900011EA0C1F0CEA131500D00CE013EA0C1F24
:1014A00000F025804FF00000F0BC81EA030101F05C
:1014B0000041BDE80081F0BCBDE8004181EA0301C4
:1014C00000F082B9F0BCBDE8004170B500F02EF923
:1014D000097EFC3E00F007B881EA03014FF00000EE
:1014E00001F00041704781EA030100F06DB9F0BCE2
:1014F000BDE800414FF0000021497047FFFDFBF9B6
:10150000F7F5F4F2F0EEEDEBE9E8E6E4E3E1E0DE36
:10151000DDDBDAD8D7D5D4D3D1D0CFCDCCCBCAC8A8
:10152000C7C6C5C4C2C1C0BFBEBDBCBBBAB9B8B7CF
:10153000B6B5B4B3B2B1B0AFAEADACABAAA9A8A8C2
:10154000A7A6A5A4A3A3A2A1A09F9F9E9D9C9C9B90
:101550009A9999989797969595949393929191903B
:101560008F8F8E8E8D8C8C8B8B8A898988888787CC
:101570008685858484838382828181800000FF0741
:101580000000F87F10F0004248BF4042B0FA80F3FC
:1015900010FA03F10AD0C3F11D0303F580634FEA8B
:1015A000415002EB035202EBD12170474FF0000093
:1015B0007047B0FA80F310FA03F10AD0C3F11D03AB
:1015C00003F580634FEA41504FEA035202EBD12109
:1015D00070474FF000007047DFF848C170B51CEA53
:1015E000111E1EBF1CEA13159EEA0C0F95EA0C0F84
:1015F00000F06F8081EA030423EA4C134EEAD47EA4
:1016000021EA4C1141F4801143F48013AE44A1FB54
:10161000024CA0FB0365AEF17F7E361955EB0C053D
:10162000A1FB034C4CF10003A0FB021C16EB0C06C3
:10163000654153F10003094218BF46F0010613F457
:10164000007F0BD14FEA03314FEA0530340341EA02
:10165000155140EA16506FF003020AE04FEAC32129
:101660004FEAC520F40241EA555140EA56506FF066
:10167000020202EB2E4201EB025585EACE710AD03E
:101680005FEA440C18BF24F0004450F1000041F11F
:10169000000120EAD47040F2FE7C624500D270BDA9
:1016A000A84214BF4FF080444FF04044002E08BFC2
:1016B0000024BEF1806FA8BFA1F1C041BDE8704019
:1016C00080F282804FF0000001F1C04101F0004142
:1016D00070479EEA0C0F0CEA131518BF95EA0C0F21
:1016E00006D04FF0000081EA030E0EF0004170BDFD
:1016F00000F01CF88900013E00F007B800F009B8BE
:101700004FEA430C5FEA5C5C08D081EA030100F019
:101710005BB84FEA410C5FEA5C5CF6D14FF0000029
:10172000014970470000FF070000F87F0EF1020E2C
:101730002EF0030E5EF8046B364205D4012A43EB0B
:10174000030515F5001F12D8012841EB010C1CF50B
:10175000001F0CD80ED14FEAD17C15F5001F0CEB01
:101760004C0C0CF1020C08BF4CEBD37C04E04FF0A6
:10177000080C01E04FEAD37C0CEB4C0526FA05F689
:1017800006F00706B6F1040C06D20EEB860CBDE897
:1017900070404CF0010C6047DFE80CF0090B0202CE
:1017A0004FF000414FF00000A1F5002170BD194637
:1017B0001046012851EB010418BFD4F5001484BF72
:1017C000002001F0004170BD0808A0F500114FEAAB
:1017D0003101704710B591EA030F48BF83F0004311
:1017E0003FF5D8AC841A71EB030C07D212198CF0B8
:1017F000004C43EB0C03001B61EB0C01DFF8A4E190
:101800004FEA1154A4EB135C1EEA430F18BF9EEA83
:10181000445F00F0B08023EA6E03524221EA045193
:10182000C3EB6E0338BF5B1EDCF1200E25D322FA1A
:101830000CFE10EB0E0043FA0CFE41EB0E01CCF156
:10184000200E03FA0EFE10EB0E0051F10001CCF158
:10185000200E29D412FA0EF201EB0451BDE810401B
:1018600058BF7047401C1CBFB2F1004F70470028A2
:101870000CBF491C20F00100704712EB020E43EB35
:10188000030218BF4FF0010E4EEA4202ACF1200CE9
:10189000DCF11E0E54D943FA0CFE10EB0E0051F190
:1018A000FF31CCF11E0ED5D50EF1010E12FA0EFE4F
:1018B000404141EB010101EB445C5FEA5C5C10D903
:1018C00010EBDE7001EB045138BFBEF1004FBDE8F4
:1018D000104018BF704700280CBF491C20F00100C1
:1018E000704730D24FEAD42C11F5001124F4006473
:1018F0001BD0B1FA81F20B3AA41AA41ED2F1200334
:10190000914030FA03F31943904001EBCC71002C65
:1019100001EB0451BDE81040A8BF704701F1C04180
:101920004FF0000001F000417047B0FA80F310FA68
:1019300003F100D110BDE41A173C4805C90AE4E7D9
:1019400001EB045110BD491001EB0451BDE81040FA
:101950004FEA300002E04FF0000170474A0008BF34
:101960000042F8D0B2F5001F28BF704701F00041D7
:101970004FF0000070479EEA445F07D011EA5E0F07
:10198000BDE8104004BF002100207047BDE81040B2
:1019900070B5FFF7CBFE00BF40DFF63E83F000419D
:1019A000104670470000E0FF43004FEAD30C4FEAB7
:1019B0003C0C43401FBF40070CF1605113F0FE4F39
:1019C00070471CF0006F03D100200CF000417047FD
:1019D0000CF0004343EA507010B540EACC0000F030
:1019E00000FA00BF000000924FEA0001FFF7ECBED2
:1019F0004FF000414FF00000A1F5002170470000BA
:101A000090EA010F48BF81F0004100F13C82421A88
:101A10003CBF801A89184FEAD0524FF07F4C1CEA25
:101A2000410FA2EBD15318BF9CEA026F00F03B803C
:101A30004FF0004C4CEA00204CEA012121FA03FC53
:101A400010EB0C0C1ED202F1FF325FEA1C2040EBBF
:101A5000C25038BF70471CF07F0F4FEA400C18BFD0
:101A6000BCF17F4F38BF7047C3F12003994008BFD6
:101A700020F00100BCF17F4F38BF7047A0F1C0409B
:101A800000F0F5B94FEA3C00000A40EBC25028BF15
:101A90001CF0FF0F4FEA400CE6D018BFBCF17F4F9F
:101AA00038BF7047EAE79CEA026F05D010EA5C0F86
:101AB00008BF00F00040704710B500F092F900BF79
:101AC00064FBBE3E4FF47F0C1CEAD0121EBF1CEA22
:101AD000D11392EA0C0F93EA0C0F00F0858090EA84
:101AE000010F48BF42F4807240F4000C41F4000042
:101AF0002CF07F4120F07F4000B58142A2EB030231
:101B00000FF2081CACEB504EC0F100009EF800E054
:101B10004FEA4E0E00FB0EFC38BF49004FEA2C1C6A
:101B200002F5FA020CFB0EF34FEACE1E4FEA112C1F
:101B30004FEAC1210EEB635E42EB22420EFB0CFC2E
:101B40004FEA1C5300FB03114FEA112C4FEA0131FD
:101B50000EFB0CFC4FEADC4C00FB0C11C14228BF11
:101B600009184CEB03335DF804EB10EB410143EB38
:101B7000C250B2F57C0F38BF704729D512F0F00F74
:101B80001CBF00F1C04000F000407047008182831C
:101B90008485868788898B8C8D8E8F91929395967C
:101BA00097999A9C9D9FA0A2A3A5A7A8AAACAEB006
:101BB000B2B3B5B7B9BCBEC0C2C5C7C9CCCED1D40B
:101BC000D7D9DCDFE2E6E9ECF0F3F7FAFE0000003B
:101BD0004FEA400C0CF1807CBCF17E4F28BF70476F
:101BE000B0F1C04000F043B990EA010F0CEAD11304
:101BF00048BF42F48072624538BF634507D213F490
:101C00007F0F16D080EA010000F00040704710B549
:101C100000F0E7F8097EFC3E00F005B880EA01001C
:101C200000F00040704780EA010000F0004000F042
:101C30001EB912F47F0F04BF0248704780EA01000A
:101C400000F015B90000C07FC10DD1F19E0206DB86
:101C50004FEA002343F0004323FA02F070470042AA
:101C600007D54FEA4001B1F1FE4F02D24FF000001C
:101C7000704710B500F0B5F84992248000207047F5
:101C80006FEA20007047000010F0004148BF40425A
:101C9000B0FA80F310FA03F2C3F19D030BD051EABE
:101CA000C35101EB1220530638BF704700F1010009
:101CB00008BF20F001007047B0FA80F310FA03F279
:101CC000C3F19D030AD0D90501EB1220530638BF9A
:101CD000704700F1010008BF20F0010070470000CC
:101CE0004FF47F0C1CEAD0121EBF1CEAD11392EAFB
:101CF0000C0F93EA0C0F00F0478090EA010F48BFE9
:101D000042F480724FF0004C4CEA00204CEA012172
:101D100002EB0302A0FB0113A2F50002002918BF89
:101D200043F001035B0028BF4FEA330342EB22423A
:101D30005FEA132C4CEBC2502EBFBCEB436FB2F5E5
:101D40007C0F70474FEA036CBCF1004F08BF20F0D6
:101D50000100B2F57C0F38BF70470BD582F0FF024F
:101D600012F5803FC8BF704700F1C040D8BF00F0F7
:101D70000040704700F5000C5FEA4C0C48BF70470C
:101D8000B0F1C04000F073B890EA010F0CEAD11333
:101D900048BF42F48072624538BF634504D280EA8E
:101DA000010000F00040704710B500F01AF800BFC5
:101DB0008900013E00F007B800F009B85FEA410C65
:101DC0005FEA1C6C08D080EA010000F050B85FEABE
:101DD000400C5FEA1C6CF6D14FF00040A0F580008B
:101DE00070470EF1020E2EF0030E5EF8044B2442F3
:101DF00004D44FEA4102B2F17F4F11D84FEA4003B9
:101E0000B3F17F4F0CD80ED14FEAD07CB2F17F4FA7
:101E10000CEB4C0C0CF1020C08BF4CEBD17C04E039
:101E20004FF0080C01E04FEAD17C0CEB4C0324FA94
:101E300003F404F00704B4F1040C06D20EEB840C96
:101E4000BDE810404CF0010C6047DFE80CF00708DB
:101E500002024FF00040A0F5800010BD084642008D
:101E600018BFD2F1807288BF00F0004010BDFF2182
:101E700041EAD050C005704790EA010F48BF81F099
:101E800000413FF5C4AD421A04D882F00042A0EBF5
:101E9000020011444FEAD0524FF07F4C1CEA410F30
:101EA000A2EBD15318BF9CEA026F4AD04FF0004C0E
:101EB0004CEA00204CEA012121FA03FCB0EB0C0CA7
:101EC0000FD412F0FE0F36D05FEA4C001DD5001281
:101ED00040EBC25038BF70471CF03F0F18BF70472F
:101EE0000BE0A2F101025FEA1C2040EBC25038BFB8
:101EF00070471CF07F0F18BF7047C3F12003994053
:101F000014BF401E20F00100704780084FEA1223E2
:101F100008BF7047B0FA80FCA2EB0C02CCF1280C91
:101F200060FA0CF093EA122F04BF00EBC250704726
:101F30004FEAC3707047130A5FEADC1008BF7047AE
:101F4000F6E79CEA026F04D010EA5C0F08BF00209D
:101F5000704710B5FFF745FF40DFF63E81F00040C7
:101F600070470000841F000800000020A00000004F
:101F70002801000824200008A000002060060000BE
:101F80004401000800000000000000000000000004
:101F90000000000000000000000000002800000019
:101FA0000100000000000000000000000000000030
:101FB0000000000000000000000000000000000021
:101FC0000000000000000000000000000000000011
:101FD0000000000000000000000000000000000001
:101FE00000000000000000000000000000000000F1
:101FF00000000000000000000000000000000000E1
:1020000000000000000000000000000000000000D0
:1020100000000000000000000000000000000000C0
:0420200000000000BC
:040000050800018965
:00000001FF
